{
  "contractName": "Chanoid",
  "abi": [
    {
      "inputs": [],
      "stateMutability": "nonpayable",
      "type": "constructor"
    },
    {
      "anonymous": false,
      "inputs": [
        {
          "indexed": true,
          "internalType": "address",
          "name": "owner",
          "type": "address"
        },
        {
          "indexed": true,
          "internalType": "address",
          "name": "spender",
          "type": "address"
        },
        {
          "indexed": false,
          "internalType": "uint256",
          "name": "value",
          "type": "uint256"
        }
      ],
      "name": "Approval",
      "type": "event"
    },
    {
      "anonymous": false,
      "inputs": [
        {
          "indexed": true,
          "internalType": "address",
          "name": "from",
          "type": "address"
        },
        {
          "indexed": true,
          "internalType": "address",
          "name": "to",
          "type": "address"
        },
        {
          "indexed": false,
          "internalType": "uint256",
          "name": "value",
          "type": "uint256"
        }
      ],
      "name": "Transfer",
      "type": "event"
    },
    {
      "inputs": [],
      "name": "INITIAL_SUPPLY",
      "outputs": [
        {
          "internalType": "uint256",
          "name": "",
          "type": "uint256"
        }
      ],
      "stateMutability": "view",
      "type": "function",
      "constant": true
    },
    {
      "inputs": [],
      "name": "NAME",
      "outputs": [
        {
          "internalType": "string",
          "name": "",
          "type": "string"
        }
      ],
      "stateMutability": "view",
      "type": "function",
      "constant": true
    },
    {
      "inputs": [],
      "name": "SYMBOL",
      "outputs": [
        {
          "internalType": "string",
          "name": "",
          "type": "string"
        }
      ],
      "stateMutability": "view",
      "type": "function",
      "constant": true
    },
    {
      "inputs": [
        {
          "internalType": "address",
          "name": "owner",
          "type": "address"
        },
        {
          "internalType": "address",
          "name": "spender",
          "type": "address"
        }
      ],
      "name": "allowance",
      "outputs": [
        {
          "internalType": "uint256",
          "name": "",
          "type": "uint256"
        }
      ],
      "stateMutability": "view",
      "type": "function",
      "constant": true
    },
    {
      "inputs": [
        {
          "internalType": "address",
          "name": "spender",
          "type": "address"
        },
        {
          "internalType": "uint256",
          "name": "amount",
          "type": "uint256"
        }
      ],
      "name": "approve",
      "outputs": [
        {
          "internalType": "bool",
          "name": "",
          "type": "bool"
        }
      ],
      "stateMutability": "nonpayable",
      "type": "function"
    },
    {
      "inputs": [
        {
          "internalType": "address",
          "name": "account",
          "type": "address"
        }
      ],
      "name": "balanceOf",
      "outputs": [
        {
          "internalType": "uint256",
          "name": "",
          "type": "uint256"
        }
      ],
      "stateMutability": "view",
      "type": "function",
      "constant": true
    },
    {
      "inputs": [],
      "name": "decimals",
      "outputs": [
        {
          "internalType": "uint8",
          "name": "",
          "type": "uint8"
        }
      ],
      "stateMutability": "view",
      "type": "function",
      "constant": true
    },
    {
      "inputs": [
        {
          "internalType": "address",
          "name": "spender",
          "type": "address"
        },
        {
          "internalType": "uint256",
          "name": "subtractedValue",
          "type": "uint256"
        }
      ],
      "name": "decreaseAllowance",
      "outputs": [
        {
          "internalType": "bool",
          "name": "",
          "type": "bool"
        }
      ],
      "stateMutability": "nonpayable",
      "type": "function"
    },
    {
      "inputs": [
        {
          "internalType": "address",
          "name": "spender",
          "type": "address"
        },
        {
          "internalType": "uint256",
          "name": "addedValue",
          "type": "uint256"
        }
      ],
      "name": "increaseAllowance",
      "outputs": [
        {
          "internalType": "bool",
          "name": "",
          "type": "bool"
        }
      ],
      "stateMutability": "nonpayable",
      "type": "function"
    },
    {
      "inputs": [],
      "name": "name",
      "outputs": [
        {
          "internalType": "string",
          "name": "",
          "type": "string"
        }
      ],
      "stateMutability": "view",
      "type": "function",
      "constant": true
    },
    {
      "inputs": [],
      "name": "symbol",
      "outputs": [
        {
          "internalType": "string",
          "name": "",
          "type": "string"
        }
      ],
      "stateMutability": "view",
      "type": "function",
      "constant": true
    },
    {
      "inputs": [],
      "name": "totalSupply",
      "outputs": [
        {
          "internalType": "uint256",
          "name": "",
          "type": "uint256"
        }
      ],
      "stateMutability": "view",
      "type": "function",
      "constant": true
    },
    {
      "inputs": [
        {
          "internalType": "address",
          "name": "recipient",
          "type": "address"
        },
        {
          "internalType": "uint256",
          "name": "amount",
          "type": "uint256"
        }
      ],
      "name": "transfer",
      "outputs": [
        {
          "internalType": "bool",
          "name": "",
          "type": "bool"
        }
      ],
      "stateMutability": "nonpayable",
      "type": "function"
    },
    {
      "inputs": [
        {
          "internalType": "address",
          "name": "sender",
          "type": "address"
        },
        {
          "internalType": "address",
          "name": "recipient",
          "type": "address"
        },
        {
          "internalType": "uint256",
          "name": "amount",
          "type": "uint256"
        }
      ],
      "name": "transferFrom",
      "outputs": [
        {
          "internalType": "bool",
          "name": "",
          "type": "bool"
        }
      ],
      "stateMutability": "nonpayable",
      "type": "function"
    }
  ],
  "bytecode": "0x60806040523480156200001157600080fd5b506040518060400160405280600781526020017f4368616e6f6964000000000000000000000000000000000000000000000000008152506040518060400160405280600481526020017f43484e440000000000000000000000000000000000000000000000000000000081525081600390805190602001906200009692919062000264565b508060049080519060200190620000af92919062000264565b505050620000eb336012600a620000c791906200046f565b612710620000d69190620005ac565b620000f1640100000000026401000000009004565b620006b8565b600073ffffffffffffffffffffffffffffffffffffffff168273ffffffffffffffffffffffffffffffffffffffff16141562000164576040517f08c379a00000000000000000000000000000000000000000000000000000000081526004016200015b9062000367565b60405180910390fd5b62000181600083836200025f640100000000026401000000009004565b8060026000828254620001959190620003b7565b92505081905550806000808473ffffffffffffffffffffffffffffffffffffffff1673ffffffffffffffffffffffffffffffffffffffff1681526020019081526020016000206000828254620001ec9190620003b7565b925050819055508173ffffffffffffffffffffffffffffffffffffffff16600073ffffffffffffffffffffffffffffffffffffffff167fddf252ad1be2c89b69c2b068fc378daa952ba7f163c4a11628f55a4df523b3ef8360405162000253919062000389565b60405180910390a35050565b505050565b828054620002729062000617565b90600052602060002090601f016020900481019282620002965760008555620002e2565b82601f10620002b157805160ff1916838001178555620002e2565b82800160010185558215620002e2579182015b82811115620002e1578251825591602001919060010190620002c4565b5b509050620002f19190620002f5565b5090565b5b8082111562000310576000816000905550600101620002f6565b5090565b600062000323601f83620003a6565b91507f45524332303a206d696e7420746f20746865207a65726f2061646472657373006000830152602082019050919050565b62000361816200060d565b82525050565b60006020820190508181036000830152620003828162000314565b9050919050565b6000602082019050620003a0600083018462000356565b92915050565b600082825260208201905092915050565b6000620003c4826200060d565b9150620003d1836200060d565b9250827fffffffffffffffffffffffffffffffffffffffffffffffffffffffffffffffff038211156200040957620004086200064d565b5b828201905092915050565b6000808291508390505b600185111562000466578086048111156200043e576200043d6200064d565b5b60018516156200044e5780820291505b80810290506200045e85620006ab565b94506200041e565b94509492505050565b60006200047c826200060d565b915062000489836200060d565b9250620004b87fffffffffffffffffffffffffffffffffffffffffffffffffffffffffffffffff8484620004c0565b905092915050565b600082620004d25760019050620005a5565b81620004e25760009050620005a5565b8160018114620004fb576002811462000506576200053c565b6001915050620005a5565b60ff8411156200051b576200051a6200064d565b5b8360020a9150848211156200053557620005346200064d565b5b50620005a5565b5060208310610133831016604e8410600b8410161715620005765782820a90508381111562000570576200056f6200064d565b5b620005a5565b62000585848484600162000414565b925090508184048111156200059f576200059e6200064d565b5b81810290505b9392505050565b6000620005b9826200060d565b9150620005c6836200060d565b9250817fffffffffffffffffffffffffffffffffffffffffffffffffffffffffffffffff04831182151516156200060257620006016200064d565b5b828202905092915050565b6000819050919050565b600060028204905060018216806200063057607f821691505b602082108114156200064757620006466200067c565b5b50919050565b7f4e487b7100000000000000000000000000000000000000000000000000000000600052601160045260246000fd5b7f4e487b7100000000000000000000000000000000000000000000000000000000600052602260045260246000fd5b6000600282049050919050565b6116a080620006c86000396000f3fe608060405234801561001057600080fd5b5060043610610107576000357c01000000000000000000000000000000000000000000000000000000009004806370a08231116100a9578063a457c2d711610083578063a457c2d714610280578063a9059cbb146102b0578063dd62ed3e146102e0578063f76f8d781461031057610107565b806370a082311461021457806395d89b4114610244578063a3f4df7e1461026257610107565b806323b872dd116100e557806323b872dd146101785780632ff2e9dc146101a8578063313ce567146101c657806339509351146101e457610107565b806306fdde031461010c578063095ea7b31461012a57806318160ddd1461015a575b600080fd5b61011461032e565b604051610121919061115d565b60405180910390f35b610144600480360381019061013f9190610dd6565b6103c0565b6040516101519190611142565b60405180910390f35b6101626103de565b60405161016f919061125f565b60405180910390f35b610192600480360381019061018d9190610d87565b6103e8565b60405161019f9190611142565b60405180910390f35b6101b06104e9565b6040516101bd919061125f565b60405180910390f35b6101ce610507565b6040516101db919061127a565b60405180910390f35b6101fe60048036038101906101f99190610dd6565b610510565b60405161020b9190611142565b60405180910390f35b61022e60048036038101906102299190610d22565b6105bc565b60405161023b919061125f565b60405180910390f35b61024c610604565b604051610259919061115d565b60405180910390f35b61026a610696565b604051610277919061115d565b60405180910390f35b61029a60048036038101906102959190610dd6565b6106cf565b6040516102a79190611142565b60405180910390f35b6102ca60048036038101906102c59190610dd6565b6107c3565b6040516102d79190611142565b60405180910390f35b6102fa60048036038101906102f59190610d4b565b6107e1565b604051610307919061125f565b60405180910390f35b610318610868565b604051610325919061115d565b60405180910390f35b60606003805461033d9061158e565b80601f01602080910402602001604051908101604052809291908181526020018280546103699061158e565b80156103b65780601f1061038b576101008083540402835291602001916103b6565b820191906000526020600020905b81548152906001019060200180831161039957829003601f168201915b5050505050905090565b60006103d46103cd6108a1565b84846108a9565b6001905092915050565b6000600254905090565b60006103f5848484610a74565b6000600160008673ffffffffffffffffffffffffffffffffffffffff1673ffffffffffffffffffffffffffffffffffffffff16815260200190815260200160002060006104406108a1565b73ffffffffffffffffffffffffffffffffffffffff1673ffffffffffffffffffffffffffffffffffffffff168152602001908152602001600020549050828110156104c0576040517f08c379a00000000000000000000000000000000000000000000000000000000081526004016104b7906111df565b60405180910390fd5b6104dd856104cc6108a1565b85846104d891906114d2565b6108a9565b60019150509392505050565b6012600a6104f7919061135a565b6127106105049190611478565b81565b60006012905090565b60006105b261051d6108a1565b84846001600061052b6108a1565b73ffffffffffffffffffffffffffffffffffffffff1673ffffffffffffffffffffffffffffffffffffffff16815260200190815260200160002060008873ffffffffffffffffffffffffffffffffffffffff1673ffffffffffffffffffffffffffffffffffffffff168152602001908152602001600020546105ad91906112b1565b6108a9565b6001905092915050565b60008060008373ffffffffffffffffffffffffffffffffffffffff1673ffffffffffffffffffffffffffffffffffffffff168152602001908152602001600020549050919050565b6060600480546106139061158e565b80601f016020809104026020016040519081016040528092919081815260200182805461063f9061158e565b801561068c5780601f106106615761010080835404028352916020019161068c565b820191906000526020600020905b81548152906001019060200180831161066f57829003601f168201915b5050505050905090565b6040518060400160405280600781526020017f4368616e6f69640000000000000000000000000000000000000000000000000081525081565b600080600160006106de6108a1565b73ffffffffffffffffffffffffffffffffffffffff1673ffffffffffffffffffffffffffffffffffffffff16815260200190815260200160002060008573ffffffffffffffffffffffffffffffffffffffff1673ffffffffffffffffffffffffffffffffffffffff1681526020019081526020016000205490508281101561079b576040517f08c379a00000000000000000000000000000000000000000000000000000000081526004016107929061123f565b60405180910390fd5b6107b86107a66108a1565b8585846107b391906114d2565b6108a9565b600191505092915050565b60006107d76107d06108a1565b8484610a74565b6001905092915050565b6000600160008473ffffffffffffffffffffffffffffffffffffffff1673ffffffffffffffffffffffffffffffffffffffff16815260200190815260200160002060008373ffffffffffffffffffffffffffffffffffffffff1673ffffffffffffffffffffffffffffffffffffffff16815260200190815260200160002054905092915050565b6040518060400160405280600481526020017f43484e440000000000000000000000000000000000000000000000000000000081525081565b600033905090565b600073ffffffffffffffffffffffffffffffffffffffff168373ffffffffffffffffffffffffffffffffffffffff161415610919576040517f08c379a00000000000000000000000000000000000000000000000000000000081526004016109109061121f565b60405180910390fd5b600073ffffffffffffffffffffffffffffffffffffffff168273ffffffffffffffffffffffffffffffffffffffff161415610989576040517f08c379a00000000000000000000000000000000000000000000000000000000081526004016109809061119f565b60405180910390fd5b80600160008573ffffffffffffffffffffffffffffffffffffffff1673ffffffffffffffffffffffffffffffffffffffff16815260200190815260200160002060008473ffffffffffffffffffffffffffffffffffffffff1673ffffffffffffffffffffffffffffffffffffffff168152602001908152602001600020819055508173ffffffffffffffffffffffffffffffffffffffff168373ffffffffffffffffffffffffffffffffffffffff167f8c5be1e5ebec7d5bd14f71427d1e84f3dd0314c0f7b2291e5b200ac8c7c3b92583604051610a67919061125f565b60405180910390a3505050565b600073ffffffffffffffffffffffffffffffffffffffff168373ffffffffffffffffffffffffffffffffffffffff161415610ae4576040517f08c379a0000000000000000000000000000000000000000000000000000000008152600401610adb906111ff565b60405180910390fd5b600073ffffffffffffffffffffffffffffffffffffffff168273ffffffffffffffffffffffffffffffffffffffff161415610b54576040517f08c379a0000000000000000000000000000000000000000000000000000000008152600401610b4b9061117f565b60405180910390fd5b610b5f838383610cf3565b60008060008573ffffffffffffffffffffffffffffffffffffffff1673ffffffffffffffffffffffffffffffffffffffff16815260200190815260200160002054905081811015610be5576040517f08c379a0000000000000000000000000000000000000000000000000000000008152600401610bdc906111bf565b60405180910390fd5b8181610bf191906114d2565b6000808673ffffffffffffffffffffffffffffffffffffffff1673ffffffffffffffffffffffffffffffffffffffff16815260200190815260200160002081905550816000808573ffffffffffffffffffffffffffffffffffffffff1673ffffffffffffffffffffffffffffffffffffffff1681526020019081526020016000206000828254610c8191906112b1565b925050819055508273ffffffffffffffffffffffffffffffffffffffff168473ffffffffffffffffffffffffffffffffffffffff167fddf252ad1be2c89b69c2b068fc378daa952ba7f163c4a11628f55a4df523b3ef84604051610ce5919061125f565b60405180910390a350505050565b505050565b600081359050610d078161163c565b92915050565b600081359050610d1c81611653565b92915050565b600060208284031215610d3457600080fd5b6000610d4284828501610cf8565b91505092915050565b60008060408385031215610d5e57600080fd5b6000610d6c85828601610cf8565b9250506020610d7d85828601610cf8565b9150509250929050565b600080600060608486031215610d9c57600080fd5b6000610daa86828701610cf8565b9350506020610dbb86828701610cf8565b9250506040610dcc86828701610d0d565b9150509250925092565b60008060408385031215610de957600080fd5b6000610df785828601610cf8565b9250506020610e0885828601610d0d565b9150509250929050565b610e1b81611518565b82525050565b6000610e2c82611295565b610e3681856112a0565b9350610e4681856020860161155b565b610e4f8161161e565b840191505092915050565b6000610e676023836112a0565b91507f45524332303a207472616e7366657220746f20746865207a65726f206164647260008301527f65737300000000000000000000000000000000000000000000000000000000006020830152604082019050919050565b6000610ecd6022836112a0565b91507f45524332303a20617070726f766520746f20746865207a65726f20616464726560008301527f73730000000000000000000000000000000000000000000000000000000000006020830152604082019050919050565b6000610f336026836112a0565b91507f45524332303a207472616e7366657220616d6f756e742065786365656473206260008301527f616c616e636500000000000000000000000000000000000000000000000000006020830152604082019050919050565b6000610f996028836112a0565b91507f45524332303a207472616e7366657220616d6f756e742065786365656473206160008301527f6c6c6f77616e63650000000000000000000000000000000000000000000000006020830152604082019050919050565b6000610fff6025836112a0565b91507f45524332303a207472616e736665722066726f6d20746865207a65726f20616460008301527f64726573730000000000000000000000000000000000000000000000000000006020830152604082019050919050565b60006110656024836112a0565b91507f45524332303a20617070726f76652066726f6d20746865207a65726f2061646460008301527f72657373000000000000000000000000000000000000000000000000000000006020830152604082019050919050565b60006110cb6025836112a0565b91507f45524332303a2064656372656173656420616c6c6f77616e63652062656c6f7760008301527f207a65726f0000000000000000000000000000000000000000000000000000006020830152604082019050919050565b61112d81611544565b82525050565b61113c8161154e565b82525050565b60006020820190506111576000830184610e12565b92915050565b600060208201905081810360008301526111778184610e21565b905092915050565b6000602082019050818103600083015261119881610e5a565b9050919050565b600060208201905081810360008301526111b881610ec0565b9050919050565b600060208201905081810360008301526111d881610f26565b9050919050565b600060208201905081810360008301526111f881610f8c565b9050919050565b6000602082019050818103600083015261121881610ff2565b9050919050565b6000602082019050818103600083015261123881611058565b9050919050565b60006020820190508181036000830152611258816110be565b9050919050565b60006020820190506112746000830184611124565b92915050565b600060208201905061128f6000830184611133565b92915050565b600081519050919050565b600082825260208201905092915050565b60006112bc82611544565b91506112c783611544565b9250827fffffffffffffffffffffffffffffffffffffffffffffffffffffffffffffffff038211156112fc576112fb6115c0565b5b828201905092915050565b6000808291508390505b60018511156113515780860481111561132d5761132c6115c0565b5b600185161561133c5780820291505b808102905061134a8561162f565b9450611311565b94509492505050565b600061136582611544565b915061137083611544565b925061139d7fffffffffffffffffffffffffffffffffffffffffffffffffffffffffffffffff84846113a5565b905092915050565b6000826113b55760019050611471565b816113c35760009050611471565b81600181146113d957600281146113e357611412565b6001915050611471565b60ff8411156113f5576113f46115c0565b5b8360020a91508482111561140c5761140b6115c0565b5b50611471565b5060208310610133831016604e8410600b84101617156114475782820a905083811115611442576114416115c0565b5b611471565b6114548484846001611307565b9250905081840481111561146b5761146a6115c0565b5b81810290505b9392505050565b600061148382611544565b915061148e83611544565b9250817fffffffffffffffffffffffffffffffffffffffffffffffffffffffffffffffff04831182151516156114c7576114c66115c0565b5b828202905092915050565b60006114dd82611544565b91506114e883611544565b9250828210156114fb576114fa6115c0565b5b828203905092915050565b600061151182611524565b9050919050565b60008115159050919050565b600073ffffffffffffffffffffffffffffffffffffffff82169050919050565b6000819050919050565b600060ff82169050919050565b60005b8381101561157957808201518184015260208101905061155e565b83811115611588576000848401525b50505050565b600060028204905060018216806115a657607f821691505b602082108114156115ba576115b96115ef565b5b50919050565b7f4e487b7100000000000000000000000000000000000000000000000000000000600052601160045260246000fd5b7f4e487b7100000000000000000000000000000000000000000000000000000000600052602260045260246000fd5b6000601f19601f8301169050919050565b6000600282049050919050565b61164581611506565b811461165057600080fd5b50565b61165c81611544565b811461166757600080fd5b5056fea264697066735822122000cb7b9d617d36995ed907a2c536281953cc9919651ace8eb1143694fcbddabe64736f6c63430008000033",
  "immutableReferences": {},
  "source": "// SPDX-License-Identifier: MIT\r\npragma solidity >=0.4.22 <0.9.0;\r\n\r\nimport \"@openzeppelin/contracts/token/ERC20/ERC20.sol\";\r\n\r\ncontract Chanoid is ERC20 {\r\n    // modify token name\r\n    string public constant NAME = \"Chanoid\";\r\n    // modify token symbol\r\n    string public constant SYMBOL = \"CHND\";\r\n\r\n    // modify initial token supply\r\n    uint256 public constant INITIAL_SUPPLY = 10000 * (10**uint256(18)); // 10000 tokens\r\n\r\n    /**\r\n     * @dev Constructor that gives msg.sender all of existing tokens.\r\n     */\r\n    constructor() public ERC20(NAME, SYMBOL) {\r\n        _mint(msg.sender, INITIAL_SUPPLY);\r\n    }\r\n\r\n    // contract Chanoid is ERC20 {\r\n    //     constructor(uint256 initialSupply) ERC20(\"Chanoid\", \"CHND\") {\r\n    //         _mint(msg.sender, initialSupply);\r\n    //     }\r\n}\r\n",
  "sourcePath": "C:/Program Files/nodejs/testblock/contracts/Chanoid.sol",
  "compiler": {
    "name": "solc",
    "version": "0.8.0+commit.c7dfd78e.Emscripten.clang"
  },
  "schemaVersion": "3.3.4",
  "updatedAt": "2021-04-22T06:53:42.418Z",
  "networkType": "ethereum",
  "devdoc": {
    "kind": "dev",
    "methods": {
      "allowance(address,address)": {
        "details": "See {IERC20-allowance}."
      },
      "approve(address,uint256)": {
        "details": "See {IERC20-approve}. Requirements: - `spender` cannot be the zero address."
      },
      "balanceOf(address)": {
        "details": "See {IERC20-balanceOf}."
      },
      "constructor": {
        "details": "Constructor that gives msg.sender all of existing tokens."
      },
      "decimals()": {
        "details": "Returns the number of decimals used to get its user representation. For example, if `decimals` equals `2`, a balance of `505` tokens should be displayed to a user as `5,05` (`505 / 10 ** 2`). Tokens usually opt for a value of 18, imitating the relationship between Ether and Wei. This is the value {ERC20} uses, unless this function is overloaded; NOTE: This information is only used for _display_ purposes: it in no way affects any of the arithmetic of the contract, including {IERC20-balanceOf} and {IERC20-transfer}."
      },
      "decreaseAllowance(address,uint256)": {
        "details": "Atomically decreases the allowance granted to `spender` by the caller. This is an alternative to {approve} that can be used as a mitigation for problems described in {IERC20-approve}. Emits an {Approval} event indicating the updated allowance. Requirements: - `spender` cannot be the zero address. - `spender` must have allowance for the caller of at least `subtractedValue`."
      },
      "increaseAllowance(address,uint256)": {
        "details": "Atomically increases the allowance granted to `spender` by the caller. This is an alternative to {approve} that can be used as a mitigation for problems described in {IERC20-approve}. Emits an {Approval} event indicating the updated allowance. Requirements: - `spender` cannot be the zero address."
      },
      "name()": {
        "details": "Returns the name of the token."
      },
      "symbol()": {
        "details": "Returns the symbol of the token, usually a shorter version of the name."
      },
      "totalSupply()": {
        "details": "See {IERC20-totalSupply}."
      },
      "transfer(address,uint256)": {
        "details": "See {IERC20-transfer}. Requirements: - `recipient` cannot be the zero address. - the caller must have a balance of at least `amount`."
      },
      "transferFrom(address,address,uint256)": {
        "details": "See {IERC20-transferFrom}. Emits an {Approval} event indicating the updated allowance. This is not required by the EIP. See the note at the beginning of {ERC20}. Requirements: - `sender` and `recipient` cannot be the zero address. - `sender` must have a balance of at least `amount`. - the caller must have allowance for ``sender``'s tokens of at least `amount`."
      }
    },
    "version": 1
  },
  "userdoc": {
    "kind": "user",
    "methods": {},
    "version": 1
  }
}